:1000000078240020190100001501000015010000EE
:1000100000000000000000000000000000000000E0
:1000200000000000000000000000000015010000BA
:100030000000000000000000150100001501000094
:100040001501000015010000150100007D030000EE
:100050001501000015010000150100001501000048
:100060001501000015010000150100001501000038
:100070001501000015010000150100001501000028
:100080001501000015010000150100001501000018
:100090001501000000000000000000001501000034
:1000A00015010000150100001501000015010000F8
:1000B0000000000010B5064C2378002B07D1054B3B
:1000C000002B02D0044800E000BF0123237010BDC4
:1000D000340400200000000048050000084B10B563
:1000E000002B03D00749084800E000BF0748036819
:1000F000002B00D110BD064B002BFBD09847F9E731
:1001000000000000380400204805000048050000F9
:1001100000000000FEE700002148224970B5884237
:1001200004D00023204CCA18A24232D300211F4B16
:100130001F4A934231D3FF211E4B1F4A8B439360CA
:1001400002220C25082430261C4B1D485A62C37815
:10015000FC398B431343C370C378AB432343C37051
:10016000184B987BB0430600202030439873987B4F
:10017000A84304439C73987B884302439A7380236B
:10018000114A51680B435360104B9847104B9847E6
:10019000FEE7C55804331560C5E702C3C9E7C0468A
:1001A0004805000000000020340400203404002032
:1001B000740400200000000000ED00E0FC7000412D
:1001C0000050004100480041004000418103000010
:1001D000E5010000014A024B1A60704740420F00DF
:1001E0000000002030B55B4B8BB0984704235A4980
:1001F0008B608B61EFF31083009372B6BFF35F8F58
:10020000564B5A685A60BFF35F8F009B83F3108888
:10021000EFF31083019372B6BFF35F8F504B1A7ADE
:10022000D2B21A72BFF35F8F019A82F31088EFF394
:100230001082029272B6BFF35F8F5A7AD2B25A72AC
:10024000BFF35F8F029A82F31088EFF3108203925C
:1002500072B6BFF35F8F9A7AD2B29A72BFF35F8F92
:10026000039A82F31088EFF31082049272B6BFF300
:100270005F8FDA7AD2B2DA72BFF35F8F049B83F3B7
:100280001088384A136A106AEFF31084059472B626
:10029000BFF35F8F344C1B01800F1B0D8007204381
:1002A0001B0403431362BFF35F8F059B83F3108826
:1002B0001300DA681207FCD5EFF31082069272B6CB
:1002C000BFF35F8F8022186A02431A62BFF35F8F09
:1002D000069A82F31088EFF31082079272B6BFF38A
:1002E0005F8F02209A6982439A61BFF35F8F079BF9
:1002F00083F31088EFF31083089372B6BFF35F8F18
:1003000080221A4B52009A60BFF35F8F089A82F3E3
:100310001088EFF31082099272B6BFF35F8F8322C9
:1003200052025A605A78D209FCD1BFF35F8F099B01
:1003300083F310880E4B0F4A80245A600522042054
:100340001A600D4A6402C8615A609A601D682542AD
:10035000FCD0F8E7D5010000004400410040004116
:10036000000400400008004002030000000C0040B0
:1003700010E000E0FFFFFF0040420F007047000068
:1003800070B50D4E0D4D0024AD1BAD1005D0A30072
:10039000F35801349847A542F9D100F0C3F8084E4C
:1003A000084D0024AD1BAD1005D0A300F358013457
:1003B0009847A542F9D170BD300500003005000016
:1003C0003005000038050000034B10B5002B02D0AB
:1003D000024800F005F810BD00000000F103000025
:1003E00010B5010000230022002000F01FF810BD0E
:1003F00070B5094B094CE41AA41009D0084AA51895
:10040000AD00ED182B68013C9847043D002CF9D154
:1004100000F092F870BDC046440500004805000099
:10042000FFFFFF3F7047C0467047C046F0B54E46DD
:100430004546DE465746E0B5364D83B0060028688F
:1004400098460F009146FFF7EDFF334B1C68A4233D
:100450005B00E058002852D043681F2B13DC5A1C65
:100460000192002E28D1019A02339B0042601F5056
:100470002868FFF7D9FF002003B03CBC904699469E
:10048000A246AB46F0BD254B002B3DD0C820400016
:1004900000E000BF002837D0A42200235200A1585A
:1004A00043600160A05040328350043283500133D6
:1004B00001930023002ED6D09A00924682444A46E9
:1004C000882154466250C4225200914681444A46D3
:1004D0008739994012688B460A4394464A466146DA
:1004E0001160842241465200A150022EBBD102006D
:1004F0005C468D32FF3211680C431460B3E7200074
:100500004D30FF30E050A7E72868FFF78DFF01204E
:100510004042B1E730040020200500000000000048
:1005200008000020F8B5C046F8BC08BC9E467047DD
:10053000C9030000DD000000F8B5C046F8BC08BCE7
:080540009E467047B500000063
:1005480040420F000000000000000000F4020020FC
:100558005C030020C403002000000000000000002D
:100568000000000000000000000000000000000083
:100578000000000000000000000000000000000073
:100588000000000000000000000000000000000063
:100598000000000000000000000000000000000053
:1005A8000000000000000000000000000000000043
:1005B8000000000000000000000000000000000033
:1005C8000000000000000000000000000000000023
:1005D8000000000000000000000000000000000013
:1005E8000000000000000000000000000000000003
:1005F80001000000000000000E33CDAB34126DE6A0
:10060800ECDE05000B000000000000000000000008
:1006180000000000000000000000000000000000D2
:1006280000000000000000000000000000000000C2
:1006380000000000000000000000000000000000B2
:1006480000000000000000000000000000000000A2
:040978005004002007
:00000001FF
