S01700004763634170706C69636174696F6E312E737265635B
S113000078240020190100001501000015010000EA
S113001000000000000000000000000000000000DC
S113002000000000000000000000000015010000B6
S11300300000000000000000150100001501000090
S1130040150100001501000015010000FD0200006B
S11300501501000015010000150100001501000044
S11300601501000015010000150100001501000034
S11300701501000015010000150100001501000024
S11300801501000015010000150100001501000014
S11300901501000000000000000000001501000030
S11300A015010000150100001501000015010000F4
S11300B00000000010B5064C2378002B07D1054B37
S11300C0002B02D0044800E000BF0123237010BDC0
S11300D03404002000000000C8040000084B10B5E0
S11300E0002B03D00749084800E000BF0748036815
S11300F0002B00D110BD064B002BFBD09847F9E72D
S11301000000000038040020C8040000C8040000F7
S113011000000000FEE70000F8B52A4A2A4B9A4284
S113012011D01A00294B9A420DD2294A03339B1A43
S11301309B0801339B000022234822498C58845099
S113014004329A42FAD1234A234B9A420AD2D34325
S113015021495B1803218B4304339B18002102C2FD
S11301609342FCD11D4AFF211D4B8B439360FD3903
S113017090235B001B4AD1501B4AD3780325AB4321
S113018002242343D370D3780C27BB43082633437C
S1130190D370164B987B30229043202210439873DF
S11301A0997BB943314399739A7BAA4322439A7347
S11301B00F4A536880210B4353600E4B98470E4BF4
S11301C09847FEE7C8040000000000203404002023
S11301D004000020340400207404002000ED00E03A
S11301E00000000000700041005000410048004140
S11301F000400041010300000D020000014A024BCF
S11302001A60704740420F000000002010B5334BC5
S11302109847334B04229A609A61324B81229200B0
S11302209A829A8A02210A439A82DA689207FCD552
S11302302D4A137801210B4313701378DB0702D581
S11302405378DB09F9D1294A274B9A601A0053786D
S1130250DB09FCD1264A244B5A601A005378DB0987
S1130260FCD180225202204B5A601A005378DB09D9
S1130270FCD1204A1C4B5A801A005378DB09FCD16C
S11302808022D201184B5A801A005378DB09FCD122
S1130290194A138801210B4313801388DB0702D505
S11302A0937ADB09F9D10422134B1A801A00937A4A
S11302B0DB09FCD18022D2000F4B9A821A00937A78
S11302C0DB09FCD102220C4B1A801A00937ADB0959
S11302D0FCD10422024BDA61FEE7C046FD010000B6
S11302E00044004100080040000C004007200000CA
S11302F007050000040700000014004070470000D8
S113030070B50D4E0D4D0024AD1BAD1005D0A300EE
S1130310F35801349847A542F9D100F0C3F8084EC8
S1130320084D0024AD1BAD1005D0A300F3580134D3
S11303309847A542F9D170BDB0040000B004000094
S1130340B0040000B8040000034B10B5002B02D029
S1130350024800F005F810BD000000007103000021
S113036010B5010000230022002000F01FF810BD8A
S113037070B5094B094CE41AA41009D0084AA51811
S1130380AD00ED182B68013C9847043D002CF9D1D1
S113039000F092F870BDC046C4040000C804000018
S11303A0FFFFFF3F7047C0467047C046F0B54E465A
S11303B04546DE465746E0B5364D83B0060028680C
S11303C098460F009146FFF7EDFF334B1C68A423BA
S11303D05B00E058002852D043681F2B13DC5A1CE2
S11303E00192002E28D1019A02339B0042601F50D3
S11303F02868FFF7D9FF002003B03CBC904699461B
S1130400A246AB46F0BD254B002B3DD0C820400092
S113041000E000BF002837D0A42200235200A158D6
S113042043600160A0504032835004328350013352
S113043001930023002ED6D09A00924682444A4665
S1130440882154466250C4225200914681444A464F
S11304508739994012688B460A4394464A46614656
S11304601160842241465200A150022EBBD10200E9
S11304705C468D32FF3211680C431460B3E72000F0
S11304804D30FF30E050A7E72868FFF78DFF0120CB
S11304904042B1E730040020A00400000000000046
S11304A008000020F8B5C046F8BC08BC9E4670475A
S11304B049030000DD000000F8B5C046F8BC08BCE4
S10B04C09E467047B5000000E0
S11304C840420F000000000000000000F402002079
S11304D85C030020C40300200000000000000000AA
S11304E80000000000000000000000000000000000
S11304F800000000000000000000000000000000F0
S113050800000000000000000000000000000000DF
S113051800000000000000000000000000000000CF
S113052800000000000000000000000000000000BF
S113053800000000000000000000000000000000AF
S1130548000000000000000000000000000000009F
S1130558000000000000000000000000000000008F
S1130568000000000000000000000000000000007F
S113057801000000000000000E33CDAB34126DE61C
S1130588ECDE05000B000000000000000000000085
S1130598000000000000000000000000000000004F
S11305A8000000000000000000000000000000003F
S11305B8000000000000000000000000000000002F
S11305C8000000000000000000000000000000001F
S10708F85004002084
S9030000FC
